:10000000F92B00308A000408840A82070034253462
:040010006334003421
:1005840008008316850186010514831285018601FE
:10059400080064008001840A040603190034040678
:1005A400CC2A44308312C600BF014308C000463041
:1005B400C100DD22080083124008C200E82A3F0877
:1005C400B9004230BA004108BB00452383124208F7
:1005D40084000120003A031DF02AF12AE12ABF0118
:1005E400C0010800831233080319F92AFA2AFF2AE2
:1005F4003308031DFE2AFF2A022B3108C222442B92
:100604003308083E840083130008B400840A0008F9
:10061400B500340835040319102B112B2E2B330885
:10062400083E84000008B400840A0008B500330AB8
:1006340084000008B600840A0008B7003708803A2E
:10064400B8003508803A3802031D2A2B34083602D4
:1006540003182D2B2E2B442B8312330A840083136F
:100664000008B4003308840000083407B5003508D6
:10067400840031088000330A840001308007840A32
:100684000318800A080083123A08840083130008C0
:1006940084000120253A031D502B512B872B3A0847
:1006A400840001308007AC01AD010030B000FF30A0
:1006B400AE00FF30AF003A08840000088400012037
:1006C400633A031D662B672B802B3A0884000130A4
:1006D40080073B0884000008BC00023080073C0807
:1006E40084000008BE003E08BC00BD013C08B10007
:1006F4003D08B2003908B300F422962B83123A085D
:100704008400013083138007962B3A088400000884
:1007140084000120BC00BD013C08B1003D08B200CA
:100724003908B300F422802B080001308312C3007F
:100734001930C4000030C500D322C3228312051C23
:10074400A42BA52BDC2BEE30860085140630CD00BF
:100754001330CC00AD30CB00CB0BAE2BCC0BAE2B7F
:10076400CD0BAE2BB52B83128510DB30860005151F
:100774000330CD008A30CC005530CB00CB0BC02BDE
:10078400CC0BC02BCD0BC02BC72B831205117E3095
:10079400860085150630CD001330CC00AD30CB007B
:1007A400CB0BD22BCC0BD22BCD0BD22BD92B831230
:1007B4008511A02BEE308600850105158230CC0012
:1007C400DD30CB00CB0BE42BCC0BE42BE92B8312D9
:1007D40005118230CC00DD30CB00CB0BEF2BCC0BE2
:1007E400EF2BF42B831205150511A02B002883137E
:0C07F4000C3084003130CB228301972BA5
:00000001FF
