:02000000072EC9
:10000800FF00030E8301E0000A08DD008A01700882
:10001800A4007B08A3007C08A2007D08A1008B1C1B
:100028001F28DE0A0319DF0A043088000130CB00DC
:100038000030CC008B100B1C3D280608203A031D0D
:100048003828023088001530FB004B30FC00BE30E9
:10005800FD00FD0B2D28FC0B2D28FB0B2D28000087
:100068000130D1000030D2000608403A031D3C2878
:100078000B102408F0002308FB002208FC002108CC
:10008800FD005D088A00600E8300FF0E7F0E0900E8
:0E009800213083120313FD00FD0B50280800D9
:1000A6000F3083120313FC004730FD00FD0B592867
:0A00B600FC0B5928000000000800B0
:0600C00000000000080032
:1000C60083160313B61B6A28831287116C288312C2
:1000D60087158316361B722883120711742883121C
:1000E60007158316B61A7A28831287107C2883127E
:1000F60087148316361A82288312071084288312DF
:1001060007144D18882807168928071287166020B5
:1001160087128316B61992288312871194288312A0
:100126008715831636199A28831207119C2883127D
:1001360007158316B618A22883128710A4288312DF
:10014600871483163618AA2883120710AC28831240
:1001560007144D18B0280716B12807128716602015
:0E01660087124D1CB8285320B9284C200800E1
:100174007B15FB1FC4280130F300F201F101F001EB
:08018400FA0DF20CFF30080037
:08018C00FA1FF2130030080015
:0E019400F201F101F001F801F3010030080062
:1001A200FB14FB1FDB28FF30F300F200F100F0002C
:0801B200FA0DF20CFF30080009
:1001BA00A0017208031DF2287108F2007008F1000C
:1001CA00F001A0157208031DF2287108F200F1016E
:1001DA00A01120167208031900292008F302031D32
:1001EA00031C04290310F21B0829F00DF10DF20D6E
:1001FA00F30BF82804290130FC00CA200B2902302D
:0E020A00FC00BA200B290430FC00C6200800BE
:0E021800831203134A088A0049088200080076
:06022600FB15FF3008008B
:10022C000E3083120313FD00FD0B1A290000080089
:10023C0083120313FD01F8017008031900347406CE
:10024C00FA00FA1BFD09FB01F41F2E29F409F40A2C
:10025C00F01F3229F009F00A70087404FA00FA1B36
:10026C0056297408F802F00D700DF80D7408F80793
:10027C00F00D0630FC00700DF80D74087018F802C3
:10028C00701CF807F00DFC0B4129701CF8077B184B
:10029C006429FD1F0034F009F00AF809F80A00344B
:1002AC00F41F6129F01B5E297008F800F0014F293A
:1002BC00F001F00A0034F009FB0A3729F80A740837
:1002CC007802031D4F29F801F00AF01F4F29FF3463
:0202DC00080018
:1002DE0083120313FB017308031D77080319C62944
:1002EE0072087606FA007708F3077E30031C83291E
:1002FE00F3020318C9298629F302031CCC297208BC
:10030E00F8007108FC007008FD00F817F6170310CE
:10031E00F201F101F0011830A0007D1CA029740833
:10032E00F00775080318750FF10776080318760F96
:10033E00F207F20CF10CF00CF80CFC0CFD0C031097
:10034E00A00B9429F21BB029F80DF00DF10DF20D52
:10035E00F3037B1B701CC229F81FC229F00A031974
:10036E00F10A0319F20A031DC229F20CF10CF00C6A
:10037E00F30A0319C929FA1FF2130030CE290130EE
:10038E00CA20CE290230D120CE290430BA20000056
:02039E00080055
:1003A000831603133408F2007208F100F20A3508CC
:1003B000F000B50A700884000008F000710884009D
:1003C000700880007108840000080319E829D42906
:0603D0003408F0000800F3
:1003D600831203134D1083163408B60063204D14A0
:0203E60008000D
:1003E80083120313FA017308031D7A147708031D97
:1003F800FA147A080319402A033A03190B2A7A18BF
:10040800082AF61F3E2A3C2AF21F3C2A3E2A720876
:100418008039FA00F21376088039F6137A06031940
:10042800192A7A0803193C2A3E2A77087302031905
:10043800202A031C342A382A760872020319272A2C
:10044800031C342A382A7508710203192E2A031C42
:10045800342A382A740870020319402A0318382AE3
:10046800FA0803193E2A3C2AFA0803193C2A3E2AAC
:1004780003140800031008000314031508000800FB
:10048800562A803083120313E700692AC030E70038
:10049800692A9430E700692AD430E700692A803055
:1004A800E700692A831203136708013A0319452AEA
:1004B8006708023A03194A2A6708033A03194D2ABA
:1004C8006708043A0319502A532A6803F00067089A
:1004D800F0077008E70070088316B60063204D1017
:1004E800EA016A086907840000080319842A6A086F
:1004F8006907840000088316B400EB21EA0A752A0C
:040508004D14080086
:10050C0083120313EE01EF0167088316B000831208
:10051C0068088316B100831269088316B20083122F
:10052C006A088316B3003308FF3A031DA72A320862
:10053C00FF3A031DA72A3108FF3A031DA72A3008EA
:10054C00FF3A031DB32A83126B088316B4003530AF
:10055C00B500D0210330F000A42C01308312EC0044
:10056C008316B21FC52A80303206F0007008B20024
:10057C008312EC0A6B0884002D308000EB0A0030EB
:10058C00F00083163306031DD52A70083206031DAE
:10059C00D52A70083106031DD52A3008003A031DF0
:1005AC00E02A83126B088316B4003D30B500D021CD
:1005BC00F001A42C3308FF3A031DEE2A3208003A4E
:1005CC00031DEE2A3108003A031DEE2A3008003ACA
:1005DC00031DFB2A83126B088316B4003930B50057
:1005EC00D02183126C08F000A42C0030F4000030F1
:1005FC00F5000030F6007F30F70083163008F0006D
:10060C003108F1003208F2003308F300F421013014
:10061C0003180030F00070080319322B83163008D1
:10062C00F0003108F1003208F2003308F30000301A
:10063C00F4000030F5002030F6008230F7006F2116
:10064C0070088316B0007108B1007208B20073080C
:10065C00B3008312EF03FB2A0030F4000030F500E6
:10066C002030F6008230F70083163008F000310895
:10067C00F1003208F2003308F300F4210130031CBE
:10068C000030F00070080319692B83163008F00055
:10069C003108F1003208F2003308F300CD30F400D9
:1006AC00CC30F5004C30F6007B30F7006F21700831
:1006BC008316B0007108B1007208B2007308B30061
:1006CC008312EF0A322BFF3083163005F800FF300F
:1006DC003105F9007F303205FA0000303305FB009C
:1006EC007808F4007908F5007A08F6007B08F70022
:1006FC00F40DF50DF60DF70D741000303005F0000B
:10070C0000303105F10000303205F200FF303305C6
:10071C00F3007008B0007108B1007208B2007308E1
:10072C00B30074083004F00075083104F100760849
:10073C003204F20077083304F3007008B00071083B
:10074C00B1007208B2007308B3007F303302F000BE
:10075C0070088312ED0001308316B3007008F400AA
:10076C003008F0003108F1003208F2003308F300D1
:10077C0074080319C82BF00DF10DF20DF30D701068
:10078C00FF3EBF2B83167008B0007108B1007208D1
:10079C00B2007308B3003308303EF00083126B08CC
:1007AC00840070088000EB0A80306F06F000803007
:1007BC00013A7002031CEB2B8030063AF0008030BB
:1007CC006F067002031CEB2BF22B6B0884002E308F
:1007DC008000EB0A0130EE000630ED006D08003AA7
:1007EC000319522C8316B3013008F0003108F100C4
:1007FC003208F2003308F300F00DF10DF20DF30D99
:10080C007010F00DF10DF20DF30D70103008F007B3
:10081C0031080318310FF10732080318320FF207B1
:10082C0033080318330FF3077008B0007108B100D8
:10083C007208B2007308B3003008F0003108F10000
:10084C003208F2003308F300F00DF10DF20DF30D48
:10085C0070107008B0007108B1007208B200730813
:10086C00B3003308303EF00083126B08840070082C
:10087C008000EB0A6E08003A031D502CEF036F0842
:10088C00003A031D502C6B0884002E308000EB0ABC
:10089C000130EE00ED03F42BFF306B0784000008F1
:1008AC00303A031D5B2CEB03522CFF306B0784009A
:1008BC0000082E3A031D632CEB036F08003A031952
:1008CC00A02C6B08840065308000EB0A80306F062A
:1008DC00F0008030003A700203187C2C6B08840006
:1008EC002D308000EB0A6F08003CEF006F08ED0024
:1008FC008030093AF00080306F0670020318922C99
:10090C000A30F4006D08F0001E213030F0076B083F
:10091C00840070088000EB0A0A30F4006D08F000C7
:10092C001E217808F0003030F0076B088400700846
:0E093C008000EB0A6B0884008001F0010800C7
:10094A00831203137408003A031DC02C7508003A79
:10095A00031DC02C7608003A031DC02C7708003A04
:10096A00031DC02CFF30F000FF30F1007F30F20091
:10097A00FF30F3005B2D83120313770803194F2D01
:10098A0073080319522D720876068039FA00F21795
:10099A00F617A0017208F8007108FC007008FD0043
:1009AA007408FD027508031C750FFC027608031C07
:1009BA00760FF802F801FC01FD01031CEB2C031071
:1009CA00F20CF10CF00CF80C0130A0007708F302DD
:1009DA00031CF52C7E302007F3070318552DFA2C3B
:1009EA007E302007F307031C582D1830FA07FD0D37
:1009FA00FC0DF80DF00DF10DF20DA00D7408F002CA
:100A0A007508031C750FF1027608031C760FF202B3
:100A1A00760DA004201C132D7D141E2D7408F007DA
:100A2A0075080318750FF10776080318760AF20796
:100A3A007D10FA031F307A05031DFC2C7B1B7D1CDD
:100A4A00452D0310F00DF10DF20DA00D7408F00202
:100A5A007508031C750FF1027608031C760FF20263
:100A6A00760D20040139FD070318FC0A0319F80A58
:100A7A00031D452DF80CFC0CFD0CF30A0319552D2A
:100A8A00FA1FF8137808F2007C08F1007D08F000DC
:100A9A0000305A2D013013215A2D0230CA205A2D06
:0E0AAA000430D1205A2D0830BA200000080078
:100AB800831203137008F8007108F000F101F201C5
:100AC800F301FB01FC019630F300FA01F01F722DCF
:100AD800F809F009F80A0319F00AFA177008F10082
:0C0AE8007808F000F801F201DD200800A1
:100AF400DE3083120313CE000530CF002530D00042
:100B040000309F01C0309F043409F0007008831640
:0C0B14009F051F179F1783121F14080075
:100B20008316031387120712071087100711871106
:100B3000831287120712871107118710071053209D
:100B400053205320871407148716602087125320E0
:100B50008716602087125320871660208712532043
:100B6000071087166020871253208716602087128F
:100B70008710871587166020871253208711071466
:100B8000871660208712071087166020871253206F
:100B9000871660208712071487166020871253205B
:100BA000071087166020871287150715871407140A
:0C0BB00087166020871253204D140800A7
:100BBC00C730831203139F052508F000F00D701049
:100BCC00F00D7010F00D701070089F0416211F1599
:100BDC001F1DF22D0000EE2D1E08F100F0018316F2
:0A0BEC001E08F0040030F1040800B8
:100BF6000C218A110A128000840AC90A0319CA0A3A
:080C0600F003031DFB2D0800A3
:100C0E0082278B170B168B158316031301177A2564
:100C1E009025FF3083168600783088003F3085009F
:100C2E008312A501DE255C250030F4000030F500AE
:100C3E002030F6008130F7006F210030F400C03014
:100C4E00F5007F30F6008830F700A5240030F40060
:100C5E000030F5007A30F6008830F7006F21003052
:100C6E00F4000030F5002030F6008230F700A524A5
:100C7E007008E1007108E2007208E3007308E400F6
:100C8E007008E7007108E8007208E9007308EA00CE
:100C9E00A030EB008622013083120313E7000130EF
:100CAE00E8002630E90044220230E7000130E80077
:100CBE00A030E90044220C308316B6006320610890
:100CCE00F4006208F5006308F6006408F7000030CF
:100CDE00F0000030F1006030F2008330F300F421B8
:100CEE00013003180030F00070080319812E843093
:100CFE008800832E013088000630FB001330FC0084
:100D0E00AD30FD00FD0B892EFC0B892EFB0B892EC1
:100D1E000000000000304C06031D972E01304B06DC
:100D2E00031DB32E01308316B60063200130E70099
:100D3E000130E8003F30E90044221F30FB007130E3
:100D4E00FC001E30FD00FD0BAA2EFC0BAA2EFB0B89
:100D5E00AA2E0000CB01CC0100305206031DB92E85
:100D6E0001305106031D572F0130A500DE257008F6
:100D7E008312E5007108E6006508D3006608D4000A
:100D8E005508F0005608F1005708F2005808F30015
:100D9E000030F4000030F5002030F6008130F7000E
:100DAE006F210030F400C030F5007F30F60088303F
:100DBE00F700A5240030F4000030F5007A30F6007C
:100DCE008830F7006F217008D9007108DA007208B8
:100DDE00DB007308DC00CD30D500CC30D6004C30B3
:100DEE00D7007B30D8008030F0008030660670026D
:100DFE00031D032F6508643C0318572F033088002A
:100E0E000B30FB002630FC005D30FD00FD0B0D2F7E
:100E1E00FC0B0D2FFB0B0D2F000000000230880085
:100E2E000B30FB002630FC005D30FD00FD0B1D2F4E
:100E3E00FC0B1D2FFB0B1D2F000000000330880044
:100E4E000B30FB002630FC005D30FD00FD0B2D2F1E
:100E5E00FC0B2D2FFB0B2D2F000000000230880005
:100E6E000B30FB002630FC005D30FD00FD0B3D2FEE
:100E7E00FC0B3D2FFB0B3D2F0000000002308800C5
:100E8E000B30FB002630FC005D30FD00FD0B4D2FBE
:100E9E00FC0B4D2FFB0B4D2F00000000D101D2019A
:040EAE00172E582F74
:100F040026308400233083120313F0005E30C900BE
:080F14000730CA00FB250800AC
:100EBC00543465346D347034653472346134743444
:0C0ECC0075347234653420343A3400343C
:020ED8000F34D5
:080EDA004E3461344E34003443
:080EE20049344E34463400345B
:040EEA00303400346C
:100EEE004234693465346E34763465346E34753418
:040EFE006534003423
:02400E007A3BFB
:00000001FF
