:02000000FE2BD5
:100734000130831685008601831286018501080035
:100744009A2302308312930000309400051EAB2BD1
:10075400AC2BA82B051CAF2BB02BA82BCA3006063C
:10076400031DB52BB62BCB2B023093000030940025
:10077400851510309200393091000D309000900BA7
:10078400C12B910BC12B920BC12BC82B831285114A
:10079400A82B13081404031DD02BD12BE62B0230F5
:1007A4009300003094000515103092003930910008
:1007B4000D309000900BDC2B910BDC2B920BDC2B7F
:1007C400E32B83120511A82B8514103092003930C5
:1007D40091000D309000900BED2B910BED2B920BB3
:1007E400ED2BF42B83128510FF3093070318940A22
:0C07F400FF309407A82B00288301A22BE3
:00000001FF
